{
  "address": "0xb6393bdA7E74627b00Ac685F31e6a0Fe336c7cf7",
  "abi": [
    {
      "inputs": [
        {
          "internalType": "uint256",
          "name": "_locktime",
          "type": "uint256"
        },
        {
          "internalType": "address",
          "name": "_dataFeedAddr",
          "type": "address"
        }
      ],
      "stateMutability": "nonpayable",
      "type": "constructor"
    },
    {
      "inputs": [],
      "name": "dataFeed",
      "outputs": [
        {
          "internalType": "contract AggregatorV3Interface",
          "name": "",
          "type": "address"
        }
      ],
      "stateMutability": "view",
      "type": "function"
    },
    {
      "inputs": [],
      "name": "fund",
      "outputs": [],
      "stateMutability": "payable",
      "type": "function"
    },
    {
      "inputs": [
        {
          "internalType": "address",
          "name": "",
          "type": "address"
        }
      ],
      "name": "fundersToAmount",
      "outputs": [
        {
          "internalType": "uint256",
          "name": "",
          "type": "uint256"
        }
      ],
      "stateMutability": "view",
      "type": "function"
    },
    {
      "inputs": [],
      "name": "getChainlinkDataFeedLatestAnswer",
      "outputs": [
        {
          "internalType": "int256",
          "name": "",
          "type": "int256"
        }
      ],
      "stateMutability": "view",
      "type": "function"
    },
    {
      "inputs": [],
      "name": "getFund",
      "outputs": [],
      "stateMutability": "nonpayable",
      "type": "function"
    },
    {
      "inputs": [],
      "name": "getFundSuccess",
      "outputs": [
        {
          "internalType": "bool",
          "name": "",
          "type": "bool"
        }
      ],
      "stateMutability": "view",
      "type": "function"
    },
    {
      "inputs": [],
      "name": "owner",
      "outputs": [
        {
          "internalType": "address",
          "name": "",
          "type": "address"
        }
      ],
      "stateMutability": "view",
      "type": "function"
    },
    {
      "inputs": [],
      "name": "reFund",
      "outputs": [],
      "stateMutability": "nonpayable",
      "type": "function"
    },
    {
      "inputs": [
        {
          "internalType": "address",
          "name": "_erc20Addr",
          "type": "address"
        }
      ],
      "name": "setErc20Addr",
      "outputs": [],
      "stateMutability": "nonpayable",
      "type": "function"
    },
    {
      "inputs": [
        {
          "internalType": "address",
          "name": "_funder",
          "type": "address"
        },
        {
          "internalType": "uint256",
          "name": "_amountToUpdate",
          "type": "uint256"
        }
      ],
      "name": "setFunderToAmout",
      "outputs": [],
      "stateMutability": "nonpayable",
      "type": "function"
    },
    {
      "inputs": [
        {
          "internalType": "address",
          "name": "newOwer",
          "type": "address"
        }
      ],
      "name": "transferOwnership",
      "outputs": [],
      "stateMutability": "nonpayable",
      "type": "function"
    }
  ],
  "transactionHash": "0xc7c8c1423ef060db3753cd1d7d4f885cd0a9f4f798f98a96ba105bc7cec58a3b",
  "args": [
    300,
    "0x694AA1769357215DE4FAC081bf1f309aDC325306"
  ],
  "numDeployments": 1,
  "solcInputHash": "c8b98641148f468f50e3268f02fcfce4",
  "bytecode": "0x60806040526000600460146101000a81548160ff02191690831515021790555034801561002b57600080fd5b506040516116aa3803806116aa833981810160405281019061004d919061017d565b33600160006101000a81548173ffffffffffffffffffffffffffffffffffffffff021916908373ffffffffffffffffffffffffffffffffffffffff16021790555080600560006101000a81548173ffffffffffffffffffffffffffffffffffffffff021916908373ffffffffffffffffffffffffffffffffffffffff160217905550426002819055508160038190555050506101bd565b600080fd5b6000819050919050565b6100fc816100e9565b811461010757600080fd5b50565b600081519050610119816100f3565b92915050565b600073ffffffffffffffffffffffffffffffffffffffff82169050919050565b600061014a8261011f565b9050919050565b61015a8161013f565b811461016557600080fd5b50565b60008151905061017781610151565b92915050565b60008060408385031215610194576101936100e4565b5b60006101a28582860161010a565b92505060206101b385828601610168565b9150509250929050565b6114de806101cc6000396000f3fe60806040526004361061009c5760003560e01c80639e42ff90116100645780639e42ff901461014c5780639f883a0514610177578063b60d4288146101b4578063bea4dfb5146101be578063da4658e0146101e9578063f2fde38b146102145761009c565b80630ff0a4df146100a157806313ffff01146100b85780638ad72ca4146100e15780638da5cb5b1461010a5780638edd6eb614610135575b600080fd5b3480156100ad57600080fd5b506100b661023d565b005b3480156100c457600080fd5b506100df60048036038101906100da9190610bef565b610496565b005b3480156100ed57600080fd5b5061010860048036038101906101039190610c52565b61056a565b005b34801561011657600080fd5b5061011f610641565b60405161012c9190610ca1565b60405180910390f35b34801561014157600080fd5b5061014a610667565b005b34801561015857600080fd5b506101616108ad565b60405161016e9190610d1b565b60405180910390f35b34801561018357600080fd5b5061019e60048036038101906101999190610bef565b6108d3565b6040516101ab9190610d45565b60405180910390f35b6101bc6108eb565b005b3480156101ca57600080fd5b506101d36109d4565b6040516101e09190610d79565b60405180910390f35b3480156101f557600080fd5b506101fe610a75565b60405161020b9190610daf565b60405180910390f35b34801561022057600080fd5b5061023b60048036038101906102369190610bef565b610a88565b005b60035460025461024d9190610df9565b42101561028f576040517f08c379a000000000000000000000000000000000000000000000000000000000815260040161028690610e8a565b60405180910390fd5b68015af1d78b58c400006102a247610b5c565b106102e2576040517f08c379a00000000000000000000000000000000000000000000000000000000081526004016102d990610ef6565b60405180910390fd5b60008060003373ffffffffffffffffffffffffffffffffffffffff1673ffffffffffffffffffffffffffffffffffffffff1681526020019081526020016000205403610363576040517f08c379a000000000000000000000000000000000000000000000000000000000815260040161035a90610f62565b60405180910390fd5b60003373ffffffffffffffffffffffffffffffffffffffff166000803373ffffffffffffffffffffffffffffffffffffffff1673ffffffffffffffffffffffffffffffffffffffff168152602001908152602001600020546040516103c790610fb3565b60006040518083038185875af1925050503d8060008114610404576040519150601f19603f3d011682016040523d82523d6000602084013e610409565b606091505b5050809150508061044f576040517f08c379a000000000000000000000000000000000000000000000000000000000815260040161044690611014565b60405180910390fd5b60008060003373ffffffffffffffffffffffffffffffffffffffff1673ffffffffffffffffffffffffffffffffffffffff1681526020019081526020016000208190555050565b600160009054906101000a900473ffffffffffffffffffffffffffffffffffffffff1673ffffffffffffffffffffffffffffffffffffffff163373ffffffffffffffffffffffffffffffffffffffff1614610526576040517f08c379a000000000000000000000000000000000000000000000000000000000815260040161051d90611080565b60405180910390fd5b80600460006101000a81548173ffffffffffffffffffffffffffffffffffffffff021916908373ffffffffffffffffffffffffffffffffffffffff16021790555050565b600460009054906101000a900473ffffffffffffffffffffffffffffffffffffffff1673ffffffffffffffffffffffffffffffffffffffff163373ffffffffffffffffffffffffffffffffffffffff16146105fa576040517f08c379a00000000000000000000000000000000000000000000000000000000081526004016105f190611112565b60405180910390fd5b806000808473ffffffffffffffffffffffffffffffffffffffff1673ffffffffffffffffffffffffffffffffffffffff168152602001908152602001600020819055505050565b600160009054906101000a900473ffffffffffffffffffffffffffffffffffffffff1681565b6003546002546106779190610df9565b4210156106b9576040517f08c379a00000000000000000000000000000000000000000000000000000000081526004016106b090610e8a565b60405180910390fd5b600160009054906101000a900473ffffffffffffffffffffffffffffffffffffffff1673ffffffffffffffffffffffffffffffffffffffff163373ffffffffffffffffffffffffffffffffffffffff1614610749576040517f08c379a000000000000000000000000000000000000000000000000000000000815260040161074090611080565b60405180910390fd5b68015af1d78b58c4000061075c47610b5c565b101561079d576040517f08c379a00000000000000000000000000000000000000000000000000000000081526004016107949061117e565b60405180910390fd5b60003373ffffffffffffffffffffffffffffffffffffffff16476040516107c390610fb3565b60006040518083038185875af1925050503d8060008114610800576040519150601f19603f3d011682016040523d82523d6000602084013e610805565b606091505b5050809150508061084b576040517f08c379a0000000000000000000000000000000000000000000000000000000008152600401610842906111ea565b60405180910390fd5b60008060003373ffffffffffffffffffffffffffffffffffffffff1673ffffffffffffffffffffffffffffffffffffffff168152602001908152602001600020819055506001600460146101000a81548160ff02191690831515021790555050565b600560009054906101000a900473ffffffffffffffffffffffffffffffffffffffff1681565b60006020528060005260406000206000915090505481565b674563918244f400006108fd34610b5c565b101561093e576040517f08c379a00000000000000000000000000000000000000000000000000000000081526004016109359061127c565b60405180910390fd5b60035460025461094e9190610df9565b421061098f576040517f08c379a0000000000000000000000000000000000000000000000000000000008152600401610986906112e8565b60405180910390fd5b346000803373ffffffffffffffffffffffffffffffffffffffff1673ffffffffffffffffffffffffffffffffffffffff16815260200190815260200160002081905550565b600080600560009054906101000a900473ffffffffffffffffffffffffffffffffffffffff1673ffffffffffffffffffffffffffffffffffffffff1663feaf968c6040518163ffffffff1660e01b815260040160a060405180830381865afa158015610a44573d6000803e3d6000fd5b505050506040513d601f19601f82011682018060405250810190610a68919061138b565b5050509150508091505090565b600460149054906101000a900460ff1681565b600160009054906101000a900473ffffffffffffffffffffffffffffffffffffffff1673ffffffffffffffffffffffffffffffffffffffff163373ffffffffffffffffffffffffffffffffffffffff1614610b18576040517f08c379a0000000000000000000000000000000000000000000000000000000008152600401610b0f90611080565b60405180910390fd5b80600160006101000a81548173ffffffffffffffffffffffffffffffffffffffff021916908373ffffffffffffffffffffffffffffffffffffffff16021790555050565b600080610b676109d4565b90506305f5e1008184610b7a9190611406565b610b849190611477565b915050919050565b600080fd5b600073ffffffffffffffffffffffffffffffffffffffff82169050919050565b6000610bbc82610b91565b9050919050565b610bcc81610bb1565b8114610bd757600080fd5b50565b600081359050610be981610bc3565b92915050565b600060208284031215610c0557610c04610b8c565b5b6000610c1384828501610bda565b91505092915050565b6000819050919050565b610c2f81610c1c565b8114610c3a57600080fd5b50565b600081359050610c4c81610c26565b92915050565b60008060408385031215610c6957610c68610b8c565b5b6000610c7785828601610bda565b9250506020610c8885828601610c3d565b9150509250929050565b610c9b81610bb1565b82525050565b6000602082019050610cb66000830184610c92565b92915050565b6000819050919050565b6000610ce1610cdc610cd784610b91565b610cbc565b610b91565b9050919050565b6000610cf382610cc6565b9050919050565b6000610d0582610ce8565b9050919050565b610d1581610cfa565b82525050565b6000602082019050610d306000830184610d0c565b92915050565b610d3f81610c1c565b82525050565b6000602082019050610d5a6000830184610d36565b92915050565b6000819050919050565b610d7381610d60565b82525050565b6000602082019050610d8e6000830184610d6a565b92915050565b60008115159050919050565b610da981610d94565b82525050565b6000602082019050610dc46000830184610da0565b92915050565b7f4e487b7100000000000000000000000000000000000000000000000000000000600052601160045260246000fd5b6000610e0482610c1c565b9150610e0f83610c1c565b9250828201905080821115610e2757610e26610dca565b5b92915050565b600082825260208201905092915050565b7f46756e642077696e646f77206973206e6f7420636c6f73652100000000000000600082015250565b6000610e74601983610e2d565b9150610e7f82610e3e565b602082019050919050565b60006020820190508181036000830152610ea381610e67565b9050919050565b7f7461726765742069732072656163686564210000000000000000000000000000600082015250565b6000610ee0601283610e2d565b9150610eeb82610eaa565b602082019050919050565b60006020820190508181036000830152610f0f81610ed3565b9050919050565b7f596f752068617665206e6f742066756e6420746f20726566756e640000000000600082015250565b6000610f4c601b83610e2d565b9150610f5782610f16565b602082019050919050565b60006020820190508181036000830152610f7b81610f3f565b9050919050565b600081905092915050565b50565b6000610f9d600083610f82565b9150610fa882610f8d565b600082019050919050565b6000610fbe82610f90565b9150819050919050565b7f526566756e64207472616e73616374696f6e206973206661696c656421000000600082015250565b6000610ffe601d83610e2d565b915061100982610fc8565b602082019050919050565b6000602082019050818103600083015261102d81610ff1565b9050919050565b7f4f6e6c79204f776e65722063616e20646f207468697300000000000000000000600082015250565b600061106a601683610e2d565b915061107582611034565b602082019050919050565b600060208201905081810360008301526110998161105d565b9050919050565b7f596f7520646f6e2774207065726d697373696f6e20746f2063616c6c2074686960008201527f732066756e6374696f6e21000000000000000000000000000000000000000000602082015250565b60006110fc602b83610e2d565b9150611107826110a0565b604082019050919050565b6000602082019050818103600083015261112b816110ef565b9050919050565b7f746172676574206973206e6f7420726561636865642100000000000000000000600082015250565b6000611168601683610e2d565b915061117382611132565b602082019050919050565b600060208201905081810360008301526111978161115b565b9050919050565b7f47657466756e64207472616e73616374696f6e206973206661696c6564210000600082015250565b60006111d4601e83610e2d565b91506111df8261119e565b602082019050919050565b60006020820190508181036000830152611203816111c7565b9050919050565b7f596f752063616e6e6f742066756e64206c657373207468616e206d696e696d7560008201527f6d20616d6f756e74000000000000000000000000000000000000000000000000602082015250565b6000611266602883610e2d565b91506112718261120a565b604082019050919050565b6000602082019050818103600083015261129581611259565b9050919050565b7f46756e642077696e646f7720697320636c6f7365642100000000000000000000600082015250565b60006112d2601683610e2d565b91506112dd8261129c565b602082019050919050565b60006020820190508181036000830152611301816112c5565b9050919050565b600069ffffffffffffffffffff82169050919050565b61132781611308565b811461133257600080fd5b50565b6000815190506113448161131e565b92915050565b61135381610d60565b811461135e57600080fd5b50565b6000815190506113708161134a565b92915050565b60008151905061138581610c26565b92915050565b600080600080600060a086880312156113a7576113a6610b8c565b5b60006113b588828901611335565b95505060206113c688828901611361565b94505060406113d788828901611376565b93505060606113e888828901611376565b92505060806113f988828901611335565b9150509295509295909350565b600061141182610c1c565b915061141c83610c1c565b925082820261142a81610c1c565b9150828204841483151761144157611440610dca565b5b5092915050565b7f4e487b7100000000000000000000000000000000000000000000000000000000600052601260045260246000fd5b600061148282610c1c565b915061148d83610c1c565b92508261149d5761149c611448565b5b82820490509291505056fea26469706673582212203cca13f4e2fd96daaff47d81002577eb97e00c29d08f0dadc750fb497de4bd0c64736f6c634300081c0033",
  "devdoc": {
    "kind": "dev",
    "methods": {},
    "version": 1
  },
  "userdoc": {
    "kind": "user",
    "methods": {},
    "version": 1
  },
  "storageLayout": {
    "storage": [
      {
        "astId": 53,
        "contract": "contracts/FundMe.sol:FundMe",
        "label": "fundersToAmount",
        "offset": 0,
        "slot": "0",
        "type": "t_mapping(t_address,t_uint256)"
      },
      {
        "astId": 69,
        "contract": "contracts/FundMe.sol:FundMe",
        "label": "owner",
        "offset": 0,
        "slot": "1",
        "type": "t_address"
      },
      {
        "astId": 71,
        "contract": "contracts/FundMe.sol:FundMe",
        "label": "deploymentTimestamp",
        "offset": 0,
        "slot": "2",
        "type": "t_uint256"
      },
      {
        "astId": 73,
        "contract": "contracts/FundMe.sol:FundMe",
        "label": "locktime",
        "offset": 0,
        "slot": "3",
        "type": "t_uint256"
      },
      {
        "astId": 75,
        "contract": "contracts/FundMe.sol:FundMe",
        "label": "erc20Addr",
        "offset": 0,
        "slot": "4",
        "type": "t_address"
      },
      {
        "astId": 78,
        "contract": "contracts/FundMe.sol:FundMe",
        "label": "getFundSuccess",
        "offset": 20,
        "slot": "4",
        "type": "t_bool"
      },
      {
        "astId": 81,
        "contract": "contracts/FundMe.sol:FundMe",
        "label": "dataFeed",
        "offset": 0,
        "slot": "5",
        "type": "t_contract(AggregatorV3Interface)45"
      }
    ],
    "types": {
      "t_address": {
        "encoding": "inplace",
        "label": "address",
        "numberOfBytes": "20"
      },
      "t_bool": {
        "encoding": "inplace",
        "label": "bool",
        "numberOfBytes": "1"
      },
      "t_contract(AggregatorV3Interface)45": {
        "encoding": "inplace",
        "label": "contract AggregatorV3Interface",
        "numberOfBytes": "20"
      },
      "t_mapping(t_address,t_uint256)": {
        "encoding": "mapping",
        "key": "t_address",
        "label": "mapping(address => uint256)",
        "numberOfBytes": "32",
        "value": "t_uint256"
      },
      "t_uint256": {
        "encoding": "inplace",
        "label": "uint256",
        "numberOfBytes": "32"
      }
    }
  }
}